{
  "_format": "hh-sol-artifact-1",
  "contractName": "MerchantRegister",
  "sourceName": "contracts/MerchantRegister.sol",
  "abi": [
    {
      "inputs": [
        {
          "internalType": "address",
          "name": "_ownerContractAddress",
          "type": "address"
        }
      ],
      "stateMutability": "nonpayable",
      "type": "constructor"
    },
    {
      "anonymous": false,
      "inputs": [
        {
          "indexed": true,
          "internalType": "address",
          "name": "merchant",
          "type": "address"
        }
      ],
      "name": "MerchantRegistered",
      "type": "event"
    },
    {
      "anonymous": false,
      "inputs": [
        {
          "indexed": true,
          "internalType": "address",
          "name": "merchant",
          "type": "address"
        }
      ],
      "name": "MerchantUpgraded",
      "type": "event"
    },
    {
      "inputs": [
        {
          "internalType": "address",
          "name": "merchant",
          "type": "address"
        }
      ],
      "name": "merchantInfo",
      "outputs": [
        {
          "internalType": "bool",
          "name": "isRegistered",
          "type": "bool"
        },
        {
          "internalType": "bool",
          "name": "isPremium",
          "type": "bool"
        }
      ],
      "stateMutability": "view",
      "type": "function"
    },
    {
      "inputs": [
        {
          "internalType": "address",
          "name": "",
          "type": "address"
        }
      ],
      "name": "merchants",
      "outputs": [
        {
          "internalType": "bool",
          "name": "isRegistered",
          "type": "bool"
        },
        {
          "internalType": "bool",
          "name": "isPremium",
          "type": "bool"
        }
      ],
      "stateMutability": "view",
      "type": "function"
    },
    {
      "inputs": [],
      "name": "ownerContract",
      "outputs": [
        {
          "internalType": "contract OwnerContract",
          "name": "",
          "type": "address"
        }
      ],
      "stateMutability": "view",
      "type": "function"
    },
    {
      "inputs": [],
      "name": "registerMerchant",
      "outputs": [],
      "stateMutability": "nonpayable",
      "type": "function"
    },
    {
      "inputs": [],
      "name": "upgradeToPremium",
      "outputs": [],
      "stateMutability": "nonpayable",
      "type": "function"
    },
    {
      "inputs": [
        {
          "internalType": "address",
          "name": "merchant",
          "type": "address"
        }
      ],
      "name": "viewMerchantPlan",
      "outputs": [
        {
          "internalType": "bool",
          "name": "isPremium",
          "type": "bool"
        }
      ],
      "stateMutability": "view",
      "type": "function"
    }
  ],
  "bytecode": "0x608060405234801561001057600080fd5b506040516104f73803806104f783398101604081905261002f91610054565b600080546001600160a01b0319166001600160a01b0392909216919091179055610084565b60006020828403121561006657600080fd5b81516001600160a01b038116811461007d57600080fd5b9392505050565b610464806100936000396000f3fe608060405234801561001057600080fd5b50600436106100625760003560e01c806308aebd9a1461006757806345206196146100b95780637f74ac15146100c35780638fecc41f146100ee578063d36f4a2714610111578063ee14e93914610119575b600080fd5b61009d6100753660046103fe565b6001600160a01b031660009081526001602052604090205460ff808216926101009092041690565b6040805192151583529015156020830152015b60405180910390f35b6100c1610145565b005b6000546100d6906001600160a01b031681565b6040516001600160a01b0390911681526020016100b0565b6101016100fc3660046103fe565b610276565b60405190151581526020016100b0565b6100c16102fc565b61009d6101273660046103fe565b60016020526000908152604090205460ff8082169161010090041682565b3360009081526001602052604090205460ff16156101aa5760405162461bcd60e51b815260206004820152601b60248201527f4d65726368616e7420616c72656164792072656769737465726564000000000060448201526064015b60405180910390fd5b60408051808201825260018082526000602080840182815233835292905283812092518354925161ffff1990931690151561ff001916176101009215159290920291909117909155805482516322b7b8a960e11b815292516001600160a01b039091169263456f715292600480830193919282900301818387803b15801561023157600080fd5b505af1158015610245573d6000803e3d6000fd5b50506040513392507f19550584307f4a89125eb78409c1879e09efac4adc7fdeca99ad253057c5085e9150600090a2565b6001600160a01b03811660009081526001602052604081205460ff166102d85760405162461bcd60e51b815260206004820152601760248201527613595c98da185b9d081b9bdd081c9959da5cdd195c9959604a1b60448201526064016101a1565b506001600160a01b0316600090815260016020526040902054610100900460ff1690565b3360009081526001602052604090205460ff166103555760405162461bcd60e51b815260206004820152601760248201527613595c98da185b9d081b9bdd081c9959da5cdd195c9959604a1b60448201526064016101a1565b33600090815260016020526040902054610100900460ff16156103ba5760405162461bcd60e51b815260206004820152601a60248201527f416c72656164792061207072656d69756d206d65726368616e7400000000000060448201526064016101a1565b33600081815260016020526040808220805461ff001916610100179055517f7eb9bf963ec727b5336f998f56b8b4dabc0dd1402bbb4c6abffe1eaeec17f46e9190a2565b60006020828403121561041057600080fd5b81356001600160a01b038116811461042757600080fd5b939250505056fea2646970667358221220ab984945c82aeb5c9307d189b16067bce7e09caa7de2e8ee62a7765920d7ad5764736f6c63430008140033",
  "linkReferences": {},
  "deployedLinkReferences": {}
}