{
  "_format": "hh-sol-artifact-1",
  "contractName": "MerchantRegister",
  "sourceName": "contracts/MerchantRegister.sol",
  "abi": [
    {
      "inputs": [
        {
          "internalType": "address",
          "name": "_ownerContractAddress",
          "type": "address"
        }
      ],
      "stateMutability": "nonpayable",
      "type": "constructor"
    },
    {
      "anonymous": false,
      "inputs": [
        {
          "indexed": true,
          "internalType": "address",
          "name": "merchant",
          "type": "address"
        }
      ],
      "name": "MerchantRegistered",
      "type": "event"
    },
    {
      "anonymous": false,
      "inputs": [
        {
          "indexed": true,
          "internalType": "address",
          "name": "merchant",
          "type": "address"
        }
      ],
      "name": "MerchantUpgraded",
      "type": "event"
    },
    {
      "inputs": [
        {
          "internalType": "address",
          "name": "merchant",
          "type": "address"
        }
      ],
      "name": "merchantInfo",
      "outputs": [
        {
          "internalType": "bool",
          "name": "isRegistered",
          "type": "bool"
        },
        {
          "internalType": "bool",
          "name": "isPremium",
          "type": "bool"
        }
      ],
      "stateMutability": "view",
      "type": "function"
    },
    {
      "inputs": [
        {
          "internalType": "address",
          "name": "",
          "type": "address"
        }
      ],
      "name": "merchants",
      "outputs": [
        {
          "internalType": "bool",
          "name": "isRegistered",
          "type": "bool"
        },
        {
          "internalType": "bool",
          "name": "isPremium",
          "type": "bool"
        }
      ],
      "stateMutability": "view",
      "type": "function"
    },
    {
      "inputs": [],
      "name": "ownerContract",
      "outputs": [
        {
          "internalType": "contract OwnerContract",
          "name": "",
          "type": "address"
        }
      ],
      "stateMutability": "view",
      "type": "function"
    },
    {
      "inputs": [],
      "name": "registerMerchant",
      "outputs": [],
      "stateMutability": "nonpayable",
      "type": "function"
    },
    {
      "inputs": [],
      "name": "upgradeToPremium",
      "outputs": [],
      "stateMutability": "nonpayable",
      "type": "function"
    },
    {
      "inputs": [
        {
          "internalType": "address",
          "name": "merchant",
          "type": "address"
        }
      ],
      "name": "viewMerchantPlan",
      "outputs": [
        {
          "internalType": "bool",
          "name": "isPremium",
          "type": "bool"
        }
      ],
      "stateMutability": "view",
      "type": "function"
    }
  ],
  "bytecode": "0x608060405234801561001057600080fd5b5060405161051f38038061051f83398101604081905261002f91610054565b600080546001600160a01b0319166001600160a01b0392909216919091179055610084565b60006020828403121561006657600080fd5b81516001600160a01b038116811461007d57600080fd5b9392505050565b61048c806100936000396000f3fe608060405234801561001057600080fd5b50600436106100625760003560e01c806308aebd9a1461006757806345206196146100965780637f74ac15146100a05780638fecc41f146100cb578063d36f4a27146100ee578063ee14e939146100f6575b600080fd5b61007a6100753660046103ef565b610122565b6040805192151583529015156020830152015b60405180910390f35b61009e61018f565b005b6000546100b3906001600160a01b031681565b6040516001600160a01b03909116815260200161008d565b6100de6100d93660046103ef565b6102bb565b604051901515815260200161008d565b61009e610317565b61007a6101043660046103ef565b60016020526000908152604090205460ff8082169161010090041682565b6001600160a01b038116600090815260016020526040812054819060ff166101655760405162461bcd60e51b815260040161015c9061041f565b60405180910390fd5b50506001600160a01b031660009081526001602052604090205460ff808216926101009092041690565b3360009081526001602052604090205460ff16156101ef5760405162461bcd60e51b815260206004820152601b60248201527f4d65726368616e7420616c726561647920726567697374657265640000000000604482015260640161015c565b60408051808201825260018082526000602080840182815233835292905283812092518354925161ffff1990931690151561ff001916176101009215159290920291909117909155805482516322b7b8a960e11b815292516001600160a01b039091169263456f715292600480830193919282900301818387803b15801561027657600080fd5b505af115801561028a573d6000803e3d6000fd5b50506040513392507f19550584307f4a89125eb78409c1879e09efac4adc7fdeca99ad253057c5085e9150600090a2565b6001600160a01b03811660009081526001602052604081205460ff166102f35760405162461bcd60e51b815260040161015c9061041f565b506001600160a01b0316600090815260016020526040902054610100900460ff1690565b3360009081526001602052604090205460ff166103465760405162461bcd60e51b815260040161015c9061041f565b33600090815260016020526040902054610100900460ff16156103ab5760405162461bcd60e51b815260206004820152601a60248201527f416c72656164792061207072656d69756d206d65726368616e74000000000000604482015260640161015c565b33600081815260016020526040808220805461ff001916610100179055517f7eb9bf963ec727b5336f998f56b8b4dabc0dd1402bbb4c6abffe1eaeec17f46e9190a2565b60006020828403121561040157600080fd5b81356001600160a01b038116811461041857600080fd5b9392505050565b60208082526017908201527f4d65726368616e74206e6f74207265676973746572656400000000000000000060408201526060019056fea2646970667358221220e2cbb0cd44edf7f794a926642b06e54f305baed84a1a24b508a5b77fd43c78da64736f6c63430008140033",
  "linkReferences": {},
  "deployedLinkReferences": {}
}