{
  "_format": "hh-sol-artifact-1",
  "contractName": "PaymentContract",
  "sourceName": "contracts/PaymentContract.sol",
  "abi": [
    {
      "inputs": [
        {
          "internalType": "address",
          "name": "_ownerContractAddress",
          "type": "address"
        },
        {
          "internalType": "address",
          "name": "_merchantRegisterAddress",
          "type": "address"
        },
        {
          "internalType": "address",
          "name": "_storeContractAddress",
          "type": "address"
        }
      ],
      "stateMutability": "nonpayable",
      "type": "constructor"
    },
    {
      "anonymous": false,
      "inputs": [
        {
          "indexed": true,
          "internalType": "address",
          "name": "client",
          "type": "address"
        },
        {
          "indexed": true,
          "internalType": "address",
          "name": "merchant",
          "type": "address"
        },
        {
          "indexed": false,
          "internalType": "uint256",
          "name": "storeId",
          "type": "uint256"
        },
        {
          "indexed": false,
          "internalType": "address",
          "name": "token",
          "type": "address"
        },
        {
          "indexed": false,
          "internalType": "uint256",
          "name": "amount",
          "type": "uint256"
        },
        {
          "indexed": false,
          "internalType": "uint256",
          "name": "fee",
          "type": "uint256"
        },
        {
          "indexed": false,
          "internalType": "uint256",
          "name": "usdtEquivalent",
          "type": "uint256"
        }
      ],
      "name": "PaymentProcessed",
      "type": "event"
    },
    {
      "inputs": [],
      "name": "BASIC_PLAN_TRANSACTION_LIMIT",
      "outputs": [
        {
          "internalType": "uint256",
          "name": "",
          "type": "uint256"
        }
      ],
      "stateMutability": "view",
      "type": "function"
    },
    {
      "inputs": [],
      "name": "BASIC_PLAN_VOLUME_LIMIT_USDT",
      "outputs": [
        {
          "internalType": "uint256",
          "name": "",
          "type": "uint256"
        }
      ],
      "stateMutability": "view",
      "type": "function"
    },
    {
      "inputs": [],
      "name": "FEE_PERCENTAGE",
      "outputs": [
        {
          "internalType": "uint256",
          "name": "",
          "type": "uint256"
        }
      ],
      "stateMutability": "view",
      "type": "function"
    },
    {
      "inputs": [],
      "name": "merchantRegister",
      "outputs": [
        {
          "internalType": "contract MerchantRegister",
          "name": "",
          "type": "address"
        }
      ],
      "stateMutability": "view",
      "type": "function"
    },
    {
      "inputs": [],
      "name": "ownerContract",
      "outputs": [
        {
          "internalType": "contract OwnerContract",
          "name": "",
          "type": "address"
        }
      ],
      "stateMutability": "view",
      "type": "function"
    },
    {
      "inputs": [
        {
          "internalType": "address",
          "name": "merchant",
          "type": "address"
        },
        {
          "internalType": "uint256",
          "name": "storeId",
          "type": "uint256"
        },
        {
          "internalType": "address",
          "name": "token",
          "type": "address"
        },
        {
          "internalType": "uint256",
          "name": "amount",
          "type": "uint256"
        },
        {
          "internalType": "uint256",
          "name": "usdtEquivalent",
          "type": "uint256"
        }
      ],
      "name": "processPayment",
      "outputs": [],
      "stateMutability": "payable",
      "type": "function"
    },
    {
      "inputs": [],
      "name": "storeContract",
      "outputs": [
        {
          "internalType": "contract StoreContract",
          "name": "",
          "type": "address"
        }
      ],
      "stateMutability": "view",
      "type": "function"
    }
  ],
  "bytecode": "0x608060405234801561001057600080fd5b50604051610e4c380380610e4c83398101604081905261002f9161008d565b600080546001600160a01b039485166001600160a01b0319918216179091556001805493851693821693909317909255600280549190931691161790556100d0565b80516001600160a01b038116811461008857600080fd5b919050565b6000806000606084860312156100a257600080fd5b6100ab84610071565b92506100b960208501610071565b91506100c760408501610071565b90509250925092565b610d6d806100df6000396000f3fe60806040526004361061006f5760003560e01c80637f74ac151161004e5780637f74ac15146100e9578063a202dbce14610109578063efd873a3146100d4578063f3cf03761461011e57600080fd5b80620b46f81461007457806344f414721461009c578063583751a1146100d4575b600080fd5b34801561008057600080fd5b50610089600581565b6040519081526020015b60405180910390f35b3480156100a857600080fd5b506001546100bc906001600160a01b031681565b6040516001600160a01b039091168152602001610093565b3480156100e057600080fd5b50610089601481565b3480156100f557600080fd5b506000546100bc906001600160a01b031681565b61011c610117366004610ac4565b61013e565b005b34801561012a57600080fd5b506002546100bc906001600160a01b031681565b6001546040516304575ecd60e11b81526001600160a01b03878116600483015260009283929116906308aebd9a906024016040805180830381865afa15801561018b573d6000803e3d6000fd5b505050506040513d601f19601f820116820180604052508101906101af9190610b2b565b91509150816102055760405162461bcd60e51b815260206004820152601760248201527f4d65726368616e74206e6f74207265676973746572656400000000000000000060448201526064015b60405180910390fd5b600254604051632f742f7560e11b81526001600160a01b0389811660048301526024820189905290911690635ee85eea90604401602060405180830381865afa158015610256573d6000803e3d6000fd5b505050506040513d601f19601f8201168201806040525081019061027a9190610b5e565b6102bd5760405162461bcd60e51b815260206004820152601460248201527314dd1bdc9948191bd95cc81b9bdd08195e1a5cdd60621b60448201526064016101fc565b6102c88787876107c6565b6103145760405162461bcd60e51b815260206004820152601f60248201527f546f6b656e206e6f74206163636570746564206279207468652073746f72650060448201526064016101fc565b600254604051632c3a77ef60e11b81526001600160a01b038981166004830152602482018990526000928392911690635874efde906044016040805180830381865afa158015610368573d6000803e3d6000fd5b505050506040513d601f19601f8201168201806040525081019061038c9190610b79565b915091508261042e57601482106103e55760405162461bcd60e51b815260206004820181905260248201527f5472616e73616374696f6e20636f756e74206c696d697420657863656564656460448201526064016101fc565b601481111561042e5760405162461bcd60e51b8152602060048201526015602482015274159bdb1d5b59481b1a5b5a5d08195e18d959591959605a1b60448201526064016101fc565b600086841561045d57606461044460058a610bb3565b61044e9190610bd0565b915061045a8289610bf2565b90505b60008060009054906101000a90046001600160a01b03166001600160a01b0316638da5cb5b6040518163ffffffff1660e01b8152600401602060405180830381865afa1580156104b1573d6000803e3d6000fd5b505050506040513d601f19601f820116820180604052508101906104d59190610c10565b90506001600160a01b038a166105ae578834146105345760405162461bcd60e51b815260206004820152601860248201527f496e636f7272656374207061796d656e7420616d6f756e74000000000000000060448201526064016101fc565b6040516001600160a01b038d169083156108fc029084906000818181858888f1935050505015801561056a573d6000803e3d6000fd5b5082156105a9576040516001600160a01b0382169084156108fc029085906000818181858888f193505050501580156105a7573d6000803e3d6000fd5b505b61074d565b6040516323b872dd60e01b81523360048201526001600160a01b038d81166024830152604482018490528b91908216906323b872dd906064016020604051808303816000875af1158015610606573d6000803e3d6000fd5b505050506040513d601f19601f8201168201806040525081019061062a9190610b5e565b6106805760405162461bcd60e51b815260206004820152602160248201527f546f6b656e207472616e7366657220746f206d65726368616e74206661696c656044820152601960fa1b60648201526084016101fc565b831561074b576040516323b872dd60e01b81523360048201526001600160a01b038381166024830152604482018690528216906323b872dd906064016020604051808303816000875af11580156106db573d6000803e3d6000fd5b505050506040513d601f19601f820116820180604052508101906106ff9190610b5e565b61074b5760405162461bcd60e51b815260206004820152601c60248201527f546f6b656e207472616e73666572206f6620666565206661696c65640000000060448201526064016101fc565b505b61075a8c8c8c8b876108ae565b604080518c81526001600160a01b038c811660208301529181018b905260608101859052608081018a9052908d169033907fabd05cdb413b2dc1dd32e252a662e65bcf6ab4431d169fb1c2d67c58195d1ef09060a00160405180910390a3505050505050505050505050565b600254604051630835f60360e31b81526001600160a01b0385811660048301526024820185905260009283929116906341afb01890604401600060405180830381865afa15801561081b573d6000803e3d6000fd5b505050506040513d6000823e601f3d908101601f191682016040526108439190810190610c43565b905060005b81518110156108a057836001600160a01b031682828151811061086d5761086d610d08565b60200260200101516001600160a01b03160361088e576001925050506108a7565b8061089881610d1e565b915050610848565b5060009150505b9392505050565b60008054604080516301a1084360e61b815290516001600160a01b039092169263684210c09260048084019382900301818387803b1580156108ef57600080fd5b505af1158015610903573d6000803e3d6000fd5b5050600054604051633516219760e01b8152600481018690526001600160a01b03909116925063351621979150602401600060405180830381600087803b15801561094d57600080fd5b505af1158015610961573d6000803e3d6000fd5b50506000546040516326885e3360e21b81526001600160a01b03878116600483015260248201869052604482018790529091169250639a2178cc9150606401600060405180830381600087803b1580156109ba57600080fd5b505af11580156109ce573d6000803e3d6000fd5b505060025460405163966ef6f560e01b81526001600160a01b03898116600483015260248201899052909116925063966ef6f59150604401600060405180830381600087803b158015610a2057600080fd5b505af1158015610a34573d6000803e3d6000fd5b50506002546040516308a266b160e11b81526001600160a01b03898116600483015260248201899052604482018790529091169250631144cd629150606401600060405180830381600087803b158015610a8d57600080fd5b505af1158015610aa1573d6000803e3d6000fd5b505050505050505050565b6001600160a01b0381168114610ac157600080fd5b50565b600080600080600060a08688031215610adc57600080fd5b8535610ae781610aac565b9450602086013593506040860135610afe81610aac565b94979396509394606081013594506080013592915050565b80518015158114610b2657600080fd5b919050565b60008060408385031215610b3e57600080fd5b610b4783610b16565b9150610b5560208401610b16565b90509250929050565b600060208284031215610b7057600080fd5b6108a782610b16565b60008060408385031215610b8c57600080fd5b505080516020909101519092909150565b634e487b7160e01b600052601160045260246000fd5b8082028115828204841417610bca57610bca610b9d565b92915050565b600082610bed57634e487b7160e01b600052601260045260246000fd5b500490565b81810381811115610bca57610bca610b9d565b8051610b2681610aac565b600060208284031215610c2257600080fd5b81516108a781610aac565b634e487b7160e01b600052604160045260246000fd5b60006020808385031215610c5657600080fd5b825167ffffffffffffffff80821115610c6e57600080fd5b818501915085601f830112610c8257600080fd5b815181811115610c9457610c94610c2d565b8060051b604051601f19603f83011681018181108582111715610cb957610cb9610c2d565b604052918252848201925083810185019188831115610cd757600080fd5b938501935b82851015610cfc57610ced85610c05565b84529385019392850192610cdc565b98975050505050505050565b634e487b7160e01b600052603260045260246000fd5b600060018201610d3057610d30610b9d565b506001019056fea2646970667358221220d7c420554889554d6a8a00bf0067af4d85e0231ee81bc101c09ea010836477b164736f6c63430008140033",
  "linkReferences": {},
  "deployedLinkReferences": {}
}