{
  "_format": "hh-sol-artifact-1",
  "contractName": "OwnerContract",
  "sourceName": "contracts/OwnerContract.sol",
  "abi": [
    {
      "inputs": [],
      "stateMutability": "nonpayable",
      "type": "constructor"
    },
    {
      "anonymous": false,
      "inputs": [
        {
          "indexed": false,
          "internalType": "address",
          "name": "token",
          "type": "address"
        },
        {
          "indexed": false,
          "internalType": "uint256",
          "name": "amount",
          "type": "uint256"
        }
      ],
      "name": "FeeCollected",
      "type": "event"
    },
    {
      "anonymous": false,
      "inputs": [
        {
          "indexed": false,
          "internalType": "uint256",
          "name": "newTotalMerchantCount",
          "type": "uint256"
        }
      ],
      "name": "MerchantCountIncremented",
      "type": "event"
    },
    {
      "anonymous": false,
      "inputs": [
        {
          "indexed": true,
          "internalType": "address",
          "name": "previousOwner",
          "type": "address"
        },
        {
          "indexed": true,
          "internalType": "address",
          "name": "newOwner",
          "type": "address"
        }
      ],
      "name": "OwnershipTransferred",
      "type": "event"
    },
    {
      "anonymous": false,
      "inputs": [
        {
          "indexed": false,
          "internalType": "uint256",
          "name": "newTotalStoreCount",
          "type": "uint256"
        }
      ],
      "name": "StoreCountIncremented",
      "type": "event"
    },
    {
      "anonymous": false,
      "inputs": [
        {
          "indexed": false,
          "internalType": "address",
          "name": "token",
          "type": "address"
        }
      ],
      "name": "TokenAdded",
      "type": "event"
    },
    {
      "anonymous": false,
      "inputs": [
        {
          "indexed": false,
          "internalType": "address",
          "name": "token",
          "type": "address"
        }
      ],
      "name": "TokenRemoved",
      "type": "event"
    },
    {
      "anonymous": false,
      "inputs": [
        {
          "indexed": false,
          "internalType": "uint256",
          "name": "newTransactionCount",
          "type": "uint256"
        }
      ],
      "name": "TransactionCountIncremented",
      "type": "event"
    },
    {
      "anonymous": false,
      "inputs": [
        {
          "indexed": false,
          "internalType": "uint256",
          "name": "volume",
          "type": "uint256"
        },
        {
          "indexed": false,
          "internalType": "uint256",
          "name": "newTotalTransactionVolume",
          "type": "uint256"
        }
      ],
      "name": "TransactionVolumeAdded",
      "type": "event"
    },
    {
      "inputs": [
        {
          "internalType": "address[]",
          "name": "tokens",
          "type": "address[]"
        }
      ],
      "name": "addTokens",
      "outputs": [],
      "stateMutability": "nonpayable",
      "type": "function"
    },
    {
      "inputs": [
        {
          "internalType": "uint256",
          "name": "volumeUSDT",
          "type": "uint256"
        }
      ],
      "name": "addTransactionVolume",
      "outputs": [],
      "stateMutability": "nonpayable",
      "type": "function"
    },
    {
      "inputs": [
        {
          "internalType": "address",
          "name": "token",
          "type": "address"
        },
        {
          "internalType": "uint256",
          "name": "amount",
          "type": "uint256"
        },
        {
          "internalType": "uint256",
          "name": "amountUSDT",
          "type": "uint256"
        }
      ],
      "name": "collectFee",
      "outputs": [],
      "stateMutability": "nonpayable",
      "type": "function"
    },
    {
      "inputs": [],
      "name": "getSupportedTokens",
      "outputs": [
        {
          "internalType": "address[]",
          "name": "",
          "type": "address[]"
        }
      ],
      "stateMutability": "view",
      "type": "function"
    },
    {
      "inputs": [],
      "name": "incrementMerchantCount",
      "outputs": [],
      "stateMutability": "nonpayable",
      "type": "function"
    },
    {
      "inputs": [],
      "name": "incrementStoreCount",
      "outputs": [],
      "stateMutability": "nonpayable",
      "type": "function"
    },
    {
      "inputs": [],
      "name": "incrementTransactionCount",
      "outputs": [],
      "stateMutability": "nonpayable",
      "type": "function"
    },
    {
      "inputs": [
        {
          "internalType": "address",
          "name": "token",
          "type": "address"
        }
      ],
      "name": "isTokenSupported",
      "outputs": [
        {
          "internalType": "bool",
          "name": "",
          "type": "bool"
        }
      ],
      "stateMutability": "view",
      "type": "function"
    },
    {
      "inputs": [],
      "name": "owner",
      "outputs": [
        {
          "internalType": "address",
          "name": "",
          "type": "address"
        }
      ],
      "stateMutability": "view",
      "type": "function"
    },
    {
      "inputs": [
        {
          "internalType": "address[]",
          "name": "tokens",
          "type": "address[]"
        }
      ],
      "name": "removeTokens",
      "outputs": [],
      "stateMutability": "nonpayable",
      "type": "function"
    },
    {
      "inputs": [
        {
          "internalType": "uint256",
          "name": "",
          "type": "uint256"
        }
      ],
      "name": "supportedTokens",
      "outputs": [
        {
          "internalType": "address",
          "name": "",
          "type": "address"
        }
      ],
      "stateMutability": "view",
      "type": "function"
    },
    {
      "inputs": [
        {
          "internalType": "address",
          "name": "",
          "type": "address"
        }
      ],
      "name": "tokenFeesCollected",
      "outputs": [
        {
          "internalType": "uint256",
          "name": "",
          "type": "uint256"
        }
      ],
      "stateMutability": "view",
      "type": "function"
    },
    {
      "inputs": [
        {
          "internalType": "address",
          "name": "",
          "type": "address"
        }
      ],
      "name": "tokenSupport",
      "outputs": [
        {
          "internalType": "bool",
          "name": "",
          "type": "bool"
        }
      ],
      "stateMutability": "view",
      "type": "function"
    },
    {
      "inputs": [],
      "name": "totalFeeCollected",
      "outputs": [
        {
          "internalType": "uint256",
          "name": "",
          "type": "uint256"
        }
      ],
      "stateMutability": "view",
      "type": "function"
    },
    {
      "inputs": [],
      "name": "totalMerchantCount",
      "outputs": [
        {
          "internalType": "uint256",
          "name": "",
          "type": "uint256"
        }
      ],
      "stateMutability": "view",
      "type": "function"
    },
    {
      "inputs": [],
      "name": "totalStoreCount",
      "outputs": [
        {
          "internalType": "uint256",
          "name": "",
          "type": "uint256"
        }
      ],
      "stateMutability": "view",
      "type": "function"
    },
    {
      "inputs": [],
      "name": "totalTransactionCount",
      "outputs": [
        {
          "internalType": "uint256",
          "name": "",
          "type": "uint256"
        }
      ],
      "stateMutability": "view",
      "type": "function"
    },
    {
      "inputs": [],
      "name": "totalTransactionVolume",
      "outputs": [
        {
          "internalType": "uint256",
          "name": "",
          "type": "uint256"
        }
      ],
      "stateMutability": "view",
      "type": "function"
    },
    {
      "inputs": [
        {
          "internalType": "address",
          "name": "newOwner",
          "type": "address"
        }
      ],
      "name": "transferOwnership",
      "outputs": [],
      "stateMutability": "nonpayable",
      "type": "function"
    },
    {
      "inputs": [],
      "name": "viewSystemTransactions",
      "outputs": [
        {
          "internalType": "uint256",
          "name": "",
          "type": "uint256"
        },
        {
          "internalType": "uint256",
          "name": "",
          "type": "uint256"
        }
      ],
      "stateMutability": "view",
      "type": "function"
    },
    {
      "inputs": [],
      "name": "viewTotalFee",
      "outputs": [
        {
          "internalType": "uint256",
          "name": "",
          "type": "uint256"
        }
      ],
      "stateMutability": "view",
      "type": "function"
    },
    {
      "inputs": [],
      "name": "viewTotalMerchants",
      "outputs": [
        {
          "internalType": "uint256",
          "name": "",
          "type": "uint256"
        }
      ],
      "stateMutability": "view",
      "type": "function"
    },
    {
      "inputs": [],
      "name": "viewTotalStoreCount",
      "outputs": [
        {
          "internalType": "uint256",
          "name": "",
          "type": "uint256"
        }
      ],
      "stateMutability": "view",
      "type": "function"
    }
  ],
  "bytecode": "0x608060405234801561001057600080fd5b50600080546001600160a01b0319163390811782556040519091907f8be0079c531659141344cd1fd0a4f28419497f9722a3daafe3b4186f6b6457e0908290a3610cb78061005f6000396000f3fe608060405234801561001057600080fd5b506004361061014d5760003560e01c806375151b63116100c3578063b9b2b5cd1161007c578063b9b2b5cd146102a0578063c6255626146102a9578063d3c7c2c7146102bc578063f2fde38b146102d1578063f839f319146102e4578063fe80858c146102ed57600080fd5b806375151b63146101fa5780638c83274b146102365780638da5cb5b1461023e57806397609e0c146102695780639a2178cc14610272578063abcf88351461028557600080fd5b80633c7ad8f1116101155780633c7ad8f1146101b4578063456f7152146101bc5780634ae05c7d146101c45780634ceb9992146101d7578063684210c0146101df5780636c3824ef146101e757600080fd5b806307ec31741461015257806325e623c5146101855780632769d9e11461018e57806331f1565214610197578063351621971461019f575b600080fd5b610172610160366004610a69565b60066020526000908152604090205481565b6040519081526020015b60405180910390f35b61017260045481565b61017260075481565b600854610172565b6101b26101ad366004610a8b565b610310565b005b6101b2610367565b6101b26103b8565b6101b26101d2366004610aa4565b610403565b600754610172565b6101b2610583565b6101b26101f5366004610aa4565b6105ce565b610226610208366004610a69565b6001600160a01b031660009081526001602052604090205460ff1690565b604051901515815260200161017c565b600554610172565b600054610251906001600160a01b031681565b6040516001600160a01b03909116815260200161017c565b61017260085481565b6101b2610280366004610b19565b6107c0565b6004546003546040805192835260208301919091520161017c565b61017260055481565b6102516102b7366004610a8b565b61084e565b6102c4610878565b60405161017c9190610b4c565b6101b26102df366004610a69565b6108da565b61017260035481565b6102266102fb366004610a69565b60016020526000908152604090205460ff1681565b80600360008282546103229190610baf565b90915550506003546040805183815260208101929092527fb3fab8b8d185be1f1ec07c8d2abffb2c7a99585e086784a310c6fa5b468ad5d1910160405180910390a150565b60016008600082825461037a9190610baf565b90915550506008546040519081527fcc8866ce33ef9ebbd8c5d14d1e942b9add675f4af8316ddaf7c5b010296940e7906020015b60405180910390a1565b6001600760008282546103cb9190610baf565b90915550506007546040519081527f57f00e8e0e45260c57da99fc987edbed09bc47788fe188ac72b2fd325ed3b323906020016103ae565b6000546001600160a01b031633146104365760405162461bcd60e51b815260040161042d90610bc8565b60405180910390fd5b60005b8181101561057e57600083838381811061045557610455610bf0565b905060200201602081019061046a9190610a69565b6001600160a01b03811660009081526001602052604090205490915060ff16156104d65760405162461bcd60e51b815260206004820152601760248201527f546f6b656e20616c726561647920737570706f72746564000000000000000000604482015260640161042d565b6001600160a01b0381166000818152600160208181526040808420805460ff1916841790556002805493840181559093527f405787fa12a823e0f2b7631cc41b3ba8828b3321ca811111fa75cd3aa3bb5ace90910180546001600160a01b0319168417905590519182527f784c8f4dbf0ffedd6e72c76501c545a70f8b203b30a26ce542bf92ba87c248a4910160405180910390a1508061057681610c06565b915050610439565b505050565b6001600460008282546105969190610baf565b90915550506004546040519081527fdeef3461959f7e37cc024089d2fc5cf72886ad120ecbfa9738767b2249e58b89906020016103ae565b6000546001600160a01b031633146105f85760405162461bcd60e51b815260040161042d90610bc8565b60005b8181101561057e57600083838381811061061757610617610bf0565b905060200201602081019061062c9190610a69565b6001600160a01b03811660009081526001602052604090205490915060ff1661068d5760405162461bcd60e51b8152602060048201526013602482015272151bdad95b881b9bdd081cdd5c1c1bdc9d1959606a1b604482015260640161042d565b6001600160a01b03811660009081526001602081905260408220805460ff191690556002546106bc9190610c1f565b905060006106c9836109b5565b9050600282815481106106de576106de610bf0565b600091825260209091200154600280546001600160a01b03909216918390811061070a5761070a610bf0565b9060005260206000200160006101000a8154816001600160a01b0302191690836001600160a01b03160217905550600280548061074957610749610c32565b6000828152602090819020600019908301810180546001600160a01b03191690559091019091556040516001600160a01b03851681527f4c910b69fe65a61f7531b9c5042b2329ca7179c77290aa7e2eb3afa3c8511fd3910160405180910390a150505080806107b890610c06565b9150506105fb565b60646107cd826005610c48565b6107d79190610c5f565b6005556001600160a01b03831660009081526006602052604081208054849290610802908490610baf565b9091555050604080516001600160a01b0385168152602081018490527f06c5efeff5c320943d265dc4e5f1af95ad523555ce0c1957e367dda5514572df910160405180910390a1505050565b6002818154811061085e57600080fd5b6000918252602090912001546001600160a01b0316905081565b606060028054806020026020016040519081016040528092919081815260200182805480156108d057602002820191906000526020600020905b81546001600160a01b031681526001909101906020018083116108b2575b5050505050905090565b6000546001600160a01b031633146109045760405162461bcd60e51b815260040161042d90610bc8565b6001600160a01b03811661095a5760405162461bcd60e51b815260206004820152601d60248201527f4e6577206f776e657220697320746865207a65726f2061646472657373000000604482015260640161042d565b600080546040516001600160a01b03808516939216917f8be0079c531659141344cd1fd0a4f28419497f9722a3daafe3b4186f6b6457e091a3600080546001600160a01b0319166001600160a01b0392909216919091179055565b6000805b600254811015610a1257826001600160a01b0316600282815481106109e0576109e0610bf0565b6000918252602090912001546001600160a01b031603610a005792915050565b80610a0a81610c06565b9150506109b9565b5060405162461bcd60e51b815260206004820152600f60248201526e151bdad95b881b9bdd08199bdd5b99608a1b604482015260640161042d565b80356001600160a01b0381168114610a6457600080fd5b919050565b600060208284031215610a7b57600080fd5b610a8482610a4d565b9392505050565b600060208284031215610a9d57600080fd5b5035919050565b60008060208385031215610ab757600080fd5b823567ffffffffffffffff80821115610acf57600080fd5b818501915085601f830112610ae357600080fd5b813581811115610af257600080fd5b8660208260051b8501011115610b0757600080fd5b60209290920196919550909350505050565b600080600060608486031215610b2e57600080fd5b610b3784610a4d565b95602085013595506040909401359392505050565b6020808252825182820181905260009190848201906040850190845b81811015610b8d5783516001600160a01b031683529284019291840191600101610b68565b50909695505050505050565b634e487b7160e01b600052601160045260246000fd5b80820180821115610bc257610bc2610b99565b92915050565b6020808252600e908201526d139bdd08185d5d1a1bdc9a5e995960921b604082015260600190565b634e487b7160e01b600052603260045260246000fd5b600060018201610c1857610c18610b99565b5060010190565b81810381811115610bc257610bc2610b99565b634e487b7160e01b600052603160045260246000fd5b8082028115828204841417610bc257610bc2610b99565b600082610c7c57634e487b7160e01b600052601260045260246000fd5b50049056fea2646970667358221220469e78ffb651a080a41b56ffc90c9fc0284ff93c21a1237757cdfb1e359a661e64736f6c63430008140033",
  "linkReferences": {},
  "deployedLinkReferences": {}
}