{
  "_format": "hh-sol-artifact-1",
  "contractName": "StoreContract",
  "sourceName": "contracts/StoreContract.sol",
  "abi": [
    {
      "inputs": [
        {
          "internalType": "address",
          "name": "_ownerContractAddress",
          "type": "address"
        },
        {
          "internalType": "address",
          "name": "_merchantRegisterAddress",
          "type": "address"
        }
      ],
      "stateMutability": "nonpayable",
      "type": "constructor"
    },
    {
      "anonymous": false,
      "inputs": [
        {
          "indexed": true,
          "internalType": "address",
          "name": "merchant",
          "type": "address"
        },
        {
          "indexed": false,
          "internalType": "uint256",
          "name": "storeId",
          "type": "uint256"
        }
      ],
      "name": "StoreCreated",
      "type": "event"
    },
    {
      "inputs": [
        {
          "internalType": "address",
          "name": "merchant",
          "type": "address"
        },
        {
          "internalType": "uint256",
          "name": "storeId",
          "type": "uint256"
        },
        {
          "internalType": "uint256",
          "name": "volumeUSDT",
          "type": "uint256"
        }
      ],
      "name": "addStoreTransactionVolume",
      "outputs": [],
      "stateMutability": "nonpayable",
      "type": "function"
    },
    {
      "inputs": [
        {
          "internalType": "address[]",
          "name": "acceptedTokens",
          "type": "address[]"
        }
      ],
      "name": "createStore",
      "outputs": [],
      "stateMutability": "nonpayable",
      "type": "function"
    },
    {
      "inputs": [
        {
          "internalType": "address",
          "name": "merchant",
          "type": "address"
        },
        {
          "internalType": "uint256",
          "name": "storeId",
          "type": "uint256"
        }
      ],
      "name": "incrementStoreTransactionCount",
      "outputs": [],
      "stateMutability": "nonpayable",
      "type": "function"
    },
    {
      "inputs": [],
      "name": "merchantRegister",
      "outputs": [
        {
          "internalType": "contract MerchantRegister",
          "name": "",
          "type": "address"
        }
      ],
      "stateMutability": "view",
      "type": "function"
    },
    {
      "inputs": [],
      "name": "ownerContract",
      "outputs": [
        {
          "internalType": "contract OwnerContract",
          "name": "",
          "type": "address"
        }
      ],
      "stateMutability": "view",
      "type": "function"
    },
    {
      "inputs": [
        {
          "internalType": "address",
          "name": "",
          "type": "address"
        }
      ],
      "name": "storeCounts",
      "outputs": [
        {
          "internalType": "uint256",
          "name": "",
          "type": "uint256"
        }
      ],
      "stateMutability": "view",
      "type": "function"
    },
    {
      "inputs": [
        {
          "internalType": "address",
          "name": "merchant",
          "type": "address"
        },
        {
          "internalType": "uint256",
          "name": "storeId",
          "type": "uint256"
        }
      ],
      "name": "storeExists",
      "outputs": [
        {
          "internalType": "bool",
          "name": "",
          "type": "bool"
        }
      ],
      "stateMutability": "view",
      "type": "function"
    },
    {
      "inputs": [
        {
          "internalType": "address",
          "name": "",
          "type": "address"
        },
        {
          "internalType": "uint256",
          "name": "",
          "type": "uint256"
        }
      ],
      "name": "stores",
      "outputs": [
        {
          "internalType": "uint256",
          "name": "transactionCount",
          "type": "uint256"
        },
        {
          "internalType": "uint256",
          "name": "transactionVolume",
          "type": "uint256"
        }
      ],
      "stateMutability": "view",
      "type": "function"
    },
    {
      "inputs": [
        {
          "internalType": "address",
          "name": "merchant",
          "type": "address"
        },
        {
          "internalType": "uint256",
          "name": "storeId",
          "type": "uint256"
        }
      ],
      "name": "viewStoreTokenAccepted",
      "outputs": [
        {
          "internalType": "address[]",
          "name": "acceptedTokens",
          "type": "address[]"
        }
      ],
      "stateMutability": "view",
      "type": "function"
    },
    {
      "inputs": [
        {
          "internalType": "address",
          "name": "merchant",
          "type": "address"
        },
        {
          "internalType": "uint256",
          "name": "storeId",
          "type": "uint256"
        }
      ],
      "name": "viewStoreTransactions",
      "outputs": [
        {
          "internalType": "uint256",
          "name": "transactionCount",
          "type": "uint256"
        },
        {
          "internalType": "uint256",
          "name": "transactionVolume",
          "type": "uint256"
        }
      ],
      "stateMutability": "view",
      "type": "function"
    }
  ],
  "bytecode": "0x608060405234801561001057600080fd5b506040516109f43803806109f483398101604081905261002f9161007c565b600080546001600160a01b039384166001600160a01b031991821617909155600180549290931691161790556100af565b80516001600160a01b038116811461007757600080fd5b919050565b6000806040838503121561008f57600080fd5b61009883610060565b91506100a660208401610060565b90509250929050565b610936806100be6000396000f3fe608060405234801561001057600080fd5b506004361061009e5760003560e01c80635ee85eea116100665780635ee85eea146101935780637f74ac15146101d0578063966ef6f5146101e3578063f0eceabe146101f6578063ff54676f1461022457600080fd5b80631144cd62146100a357806341afb018146100b857806344f41472146100e157806354121c741461010c5780635874efde14610153575b600080fd5b6100b66100b1366004610709565b610237565b005b6100cb6100c636600461073c565b610275565b6040516100d89190610766565b60405180910390f35b6001546100f4906001600160a01b031681565b6040516001600160a01b0390911681526020016100d8565b61013e61011a36600461073c565b60026020818152600093845260408085209091529183529120600181015491015482565b604080519283526020830191909152016100d8565b61013e61016136600461073c565b6001600160a01b0391909116600090815260026020818152604080842094845293905291902060018101549101549091565b6101c06101a136600461073c565b6001600160a01b03919091166000908152600360205260409020541190565b60405190151581526020016100d8565b6000546100f4906001600160a01b031681565b6100b66101f136600461073c565b6102f5565b6102166102043660046107b3565b60036020526000908152604090205481565b6040519081526020016100d8565b6100b66102323660046107d5565b610330565b6001600160a01b0383166000908152600260208181526040808420868552909152822001805483929061026b908490610860565b9091555050505050565b6001600160a01b03821660009081526002602090815260408083208484528252918290208054835181840281018401909452808452606093928301828280156102e757602002820191906000526020600020905b81546001600160a01b031681526001909101906020018083116102c9575b505050505090505b92915050565b6001600160a01b0382166000908152600260209081526040808320848452909152812060010180549161032783610873565b91905055505050565b6001546040516304575ecd60e11b815233600482015260009182916001600160a01b03909116906308aebd9a906024016040805180830381865afa15801561037c573d6000803e3d6000fd5b505050506040513d601f19601f820116820180604052508101906103a0919061089c565b91509150816103f65760405162461bcd60e51b815260206004820152601760248201527f4d65726368616e74206e6f74207265676973746572656400000000000000000060448201526064015b60405180910390fd5b8061046f57336000908152600360205260409020541561046f5760405162461bcd60e51b815260206004820152602e60248201527f426173696320706c616e206d65726368616e74732063616e206f6e6c7920637260448201526d65617465206f6e652073746f726560901b60648201526084016103ed565b60005b83811015610578576000546001600160a01b031663fe80858c86868481811061049d5761049d6108cf565b90506020020160208101906104b291906107b3565b6040516001600160e01b031960e084901b1681526001600160a01b039091166004820152602401602060405180830381865afa1580156104f6573d6000803e3d6000fd5b505050506040513d601f19601f8201168201806040525081019061051a91906108e5565b6105665760405162461bcd60e51b815260206004820152601c60248201527f546f6b656e206e6f7420737570706f72746564206279206f776e65720000000060448201526064016103ed565b8061057081610873565b915050610472565b503360009081526003602090815260409182902054825191860280830160809081019094526060830187815291938392918991899182918601908490808284376000920182905250938552505050602080830182905260409283018290523382526002815282822085835281529190208251805191926105fd92849290910190610673565b506020828101516001830155604092830151600290920191909155336000908152600390915290812080549161063283610873565b909155505060405181815233907fcecb9bd599ef7f9c86d2babc8f0e599fe67b1e1e711c2eb136f68829ce35e3619060200160405180910390a25050505050565b8280548282559060005260206000209081019282156106c8579160200282015b828111156106c857825182546001600160a01b0319166001600160a01b03909116178255602090920191600190910190610693565b506106d49291506106d8565b5090565b5b808211156106d457600081556001016106d9565b80356001600160a01b038116811461070457600080fd5b919050565b60008060006060848603121561071e57600080fd5b610727846106ed565b95602085013595506040909401359392505050565b6000806040838503121561074f57600080fd5b610758836106ed565b946020939093013593505050565b6020808252825182820181905260009190848201906040850190845b818110156107a75783516001600160a01b031683529284019291840191600101610782565b50909695505050505050565b6000602082840312156107c557600080fd5b6107ce826106ed565b9392505050565b600080602083850312156107e857600080fd5b823567ffffffffffffffff8082111561080057600080fd5b818501915085601f83011261081457600080fd5b81358181111561082357600080fd5b8660208260051b850101111561083857600080fd5b60209290920196919550909350505050565b634e487b7160e01b600052601160045260246000fd5b808201808211156102ef576102ef61084a565b6000600182016108855761088561084a565b5060010190565b8051801515811461070457600080fd5b600080604083850312156108af57600080fd5b6108b88361088c565b91506108c66020840161088c565b90509250929050565b634e487b7160e01b600052603260045260246000fd5b6000602082840312156108f757600080fd5b6107ce8261088c56fea264697066735822122075da6516d93785f5c26da44da56aac39210b84e04c2f74ddc87e4b94a312bd7664736f6c63430008140033",
  "linkReferences": {},
  "deployedLinkReferences": {}
}